:100000000C942A000C9434000C9434000C943400AA
:100010000C9434000C9434000C9434000C94340090
:100020000C9434000C9434000C9434000C94340080
:100030000C9434000C9434000C9434000C94340070
:100040000C9434000C9434000C9434000C94340060
:100050000C94340011241FBECFE5D8E0DEBFCDBF25
:100060000E9436000C9467000C9400008FEF8ABB4E
:1000700061E070E080E090E04BB39B01082E02C08D
:10008000220F331F0A94E2F7242B2BBBEFE3FCE98A
:100090003197F1F700C0000001968830910561F7B3
:1000A00087E090E03BB3AB01082E02C0440F551F20
:1000B0000A94E2F7242F209523232BBBEFE3FCE9DE
:1000C0003197F1F700C00000019760F7D3CFF894A3
:0200D000FFCF60
:00000001FF
